:10000000FB2B00308A000408840A82070034003485
:10001000FF3401340034013400340034FF34FF3441
:0E00200000340034013400340134FF34003465
:100744008312A101851AA114051A21140310A60D00
:100754000310A60D2108A0002008A60426080F39BE
:10076400A0002008A1002108013E84000120080007
:10077400A501073099008B01831605108510151605
:10078400951605168516831205148514A223A20056
:100794002208A4002408A50225080339031DF12B0F
:1007A40024080319F12BA51FE42B05100330A30023
:1007B4009730A200A20BDC2BA30BDC2BE12B8312C2
:1007C4000514F02B85100330A3009730A200A20B70
:1007D400E92BA30BE92BEE2B83128514A50103301F
:1007E400A3009730A200A20BF52BA30BF52BFA2B39
:0A07F400C82B8312A6018301BA2B63
:02400E009431EB
:00000001FF
